:020000002AC014
:10000200FECFFDCFFCCFFBCF6FC0F9CFA1C0F7CFA2
:10001200F6CFF5CFF4CFF3CFF2CFF1CFF0CFEFCFD2
:10002200EECFEDCF1027E80364000A0001000010B4
:100032000001100001000000000300061B02520034
:10004200000000030D0006000200380009008A00CB
:100052003E000000F894EE27ECBBE5BF8DE0A2E085
:10006200ED938A95E9F780E8A0E6ED938A95E9F7A2
:10007200E8E4F0E085919591009761F0A591B59142
:1000820005901590BF01F00105900D920197E1F7DF
:10009200FB01F0CFE0E0E3BBE4BBE5BBEFEDEDBF7E
:1000A200C0E8C9C0E0E8E6BDE0E0E6BDEABBEBBB04
:1000B200EFEFE7BBE0E0E8BBE1BBE2BBEBB9E8E9AD
:1000C200EAB9E6E0E3B9E0E0E2B9E1E8E9B9E0E0A3
:1000D200EFBDE2E4EEBDE2D0E0E0E5BDE4BDEBBDA4
:1000E200EABDE9BDE8BD08950A921A92FA926A93AE
:1000F2007A938A939A93AA93BA93EA93FA93EFB76D
:10010200EA93CCD098994394989B02C0471408F480
:1001120001C04CD0E991EFBFF991E991B991A99150
:100122009991899179916991F9901990099018950D
:10013200AA931A9310E010E0193048F45D9BFECFA9
:10014200E12FA981AE0FEC91ECB91F5FF5CF70C022
:10015200EA93EFB7EA93B1D01BB10CB1E12FEC7186
:10016200F9F4302EEBE1E31519F444242224989A91
:10017200989B15C0EBE1E31509F02394E22DE058BA
:100182003082EDE0E31519F4E5E0E21539F0EDE037
:10019200E31519F4E8E0E21509F001C0999A332455
:1001A20009911991E991EFBFE9911895E0E8EA9375
:1001B200E0E0EA93AAE065D0999898984424222432
:1001C20008951A9310E0E0E0B099E1E0E0938E0028
:1001D200E0E0B199E1E0E0938F00E0E0B299E1E084
:1001E200E093900014E0173058F4AAE8A10FEC91C4
:1001F200E03021F0AAE8A10FEFEFEC931F5FF3CFFD
:10020200AAE896DF19910895AA931A9310E0E9815A
:10021200E481E03009F01F5FE981E581E03009F017
:100222001E5FE981E681E03009F01C5F18BBC9DF7F
:1002320018812296089510E035DF7894EFEFE8BB3D
:10024200AAEFB0E030D011E0193030F418BBA6E9C3
:10025200B0E029D01F5FF8CF58BA999B10C0E09147
:100262008200F0E0E335A0E0FA0711F4AADF06C04D
:10027200E334A0E0FA0711F4A0E8C6DF97DFEDCF80
:10028200FFCFAA93A881AA2331F0FF27EA816981CF
:100292006193AA95E9F7EA8123960895EFECEDBD03
:1002A200ECE2ECBD0895109639F080ED97E00197ED
:1002B200F1F7A8951197C9F708951A930A9308952B
:00000001FF
